:100000000C9462000C948A000C948A000C948A0070
:100010000C948A000C948A000C948A000C948A0038
:100020000C948A000C948A000C948A000C945A0256
:100030000C948A000C948A000C948A000C948A0018
:100040000C9410020C948A000C948A000C948A0080
:100050000C948A000C948A000C948A000C948A00F8
:100060000C948A000C948A000000000024002700F1
:100070002A0000000000250028002B0000000000DE
:1000800023002600290004040404040404040202DA
:100090000202020203030303030301020408102007
:1000A0004080010204081020010204081020000012
:1000B0000008000201000003040700000000000027
:1000C0000000520511241FBECFEFD8E0DEBFCDBF28
:1000D00011E0A0E0B1E0E8ECFBE002C005900D9279
:1000E000A030B107D9F721E0A0E0B1E001C01D9236
:1000F000A433B207E1F710E0C2E6D0E004C02197D4
:10010000FE010E94DC05C136D107C9F70E94160323
:100110000C94E2050C940000CF92DF92EF92FF92D4
:10012000DC01A03282E0B807D4F5A53BB10514F09C
:10013000A4EBB0E04091320128E830E0241B310903
:1001400047FD3395220F331F220F331F6901330FF1
:10015000EE08FF084091330128E532E0241B310905
:1001600047FD3395220F331F220F331F032E000C40
:10017000440B550B2C193D094E095F09B7FF02C00E
:10018000B0E0A0E00E94970524EB30E040E050E0B2
:100190000E946D05C20ED31EE41EF51ED601E0912D
:1001A0003101EC3080F52091320188E890E0821B2B
:1001B000910927FD9395880F991F880F991FA817FC
:1001C000B90784F02091330188E592E0821B910900
:1001D00027FD9395880F991F880F991FA817B907B6
:1001E0000CF4CD010297880F991F4FB7F8942E2F6A
:1001F00030E0F901EE0FFF1FE20FF31FE35FFE4F48
:10020000928381834FBFFF90EF90DF90CF9008954E
:10021000833081F028F4813099F08230A9F008957C
:100220008730A9F08830C9F08430B1F48091800023
:100230008F7D03C0809180008F7780938000089528
:1002400084B58F7784BD089584B58F7DFBCF809171
:10025000B0008F778093B00008958091B0008F7DBB
:10026000F9CFCF93DF93282F30E0F901E255FF4F0C
:100270008491F901E656FF4FD491F901EA57FF4FF7
:10028000C491CC23A1F081110E940801EC2FF0E071
:10029000EE0FFF1FE458FF4FA591B491EC91ED23B1
:1002A00081E090E009F480E0DF91CF91089580E053
:1002B00090E0FACF1F93CF93DF93282F30E0F9011E
:1002C000E255FF4F8491F901E656FF4FD491F901B1
:1002D000EA57FF4FC491CC23A9F0162F81110E9439
:1002E0000801EC2FF0E0EE0FFF1FEE58FF4FA59135
:1002F000B4918FB7F894EC91111108C0D095DE231A
:10030000DC938FBFDF91CF911F910895DE2BF8CF43
:10031000CF93DF9390E0FC01E656FF4F24918A577C
:100320009F4FFC0184918823D1F090E0880F991FA2
:10033000FC01E859FF4FA591B491FC01EE58FF4F25
:10034000C591D491623071F49FB7F8943C91822F9B
:10035000809583238C93E8812E2B28839FBFDF9188
:10036000CF9108958FB7F894EC912E2B2C938FBFDB
:10037000F6CF3FB7F8948091070190910801A091C2
:100380000901B0910A0126B5A89B05C02F3F19F0BD
:100390000196A11DB11D3FBFBA2FA92F982F882705
:1003A000BC01CD01620F711D811D911D42E0660FE0
:1003B000771F881F991F4A95D1F708958F929F92B2
:1003C000AF92BF92CF92DF92EF92FF924B015C010E
:1003D0000E94B9016B017C010E94B9016C197D0971
:1003E0008E099F09683E734081059105A8F321E0BD
:1003F000821A9108A108B10888EEC80E83E0D81EC1
:10040000E11CF11C81149104A104B10429F7FF90AF
:10041000EF90DF90CF90BF90AF909F908F90089516
:100420001F920F920FB60F9211242F933F938F9329
:100430009F93AF93BF938091030190910401A0918A
:100440000501B09106013091020123E0230F2D3701
:1004500058F50196A11DB11D20930201809303015F
:1004600090930401A0930501B093060180910701C8
:1004700090910801A0910901B0910A010196A11D76
:10048000B11D8093070190930801A0930901B093D7
:100490000A01BF91AF919F918F913F912F910F9042
:1004A0000FBE0F901F90189526E8230F0296A11DEE
:1004B000B11DD2CF1F920F920FB60F9211242F931E
:1004C0003F934F935F936F937F938F939F93AF93DC
:1004D000BF93CF93DF93EF93FF9380910101C0917E
:1004E0000001D0E087FF24C01092850010928400A4
:1004F000809101018F5F8093010180910101082E9D
:10050000000C990B8C179D0724F4809101018C300D
:10051000C4F18091840090918500049680349C49B8
:1005200008F47AC08091840090918500049676C08A
:1005300080910101082E000C990B8C179D07C4F6C1
:10054000E09101018E2FEE0F990BFC01EE0FFF1FC2
:10055000E80FF91FE35FFE4F808186FFC9CFE0916E
:1005600001018E2FEE0F990BFC01EE0FFF1FE80F1C
:10057000F91FE35FFE4F808160E08F730E945A0194
:10058000B7CF2091840030918500E09101018E2F3A
:10059000EE0F990BFC01EE0FFF1FE80FF91FE35F51
:1005A000FE4F81819281820F931F909389008093E7
:1005B0008800E09101018E2FEE0F990BFC01EE0FE8
:1005C000FF1FE80FF91FE35FFE4F808186FF11C018
:1005D000E09101018E2FEE0F990BFC01EE0FFF1F32
:1005E000E80FF91FE35FFE4F808161E08F730E9487
:1005F0005A01FF91EF91DF91CF91BF91AF919F9100
:100600008F917F916F915F914F913F912F910F90BB
:100610000FBE0F901F90189580E49CE9909389007D
:10062000809388008FEF80930101E3CF789484B5A5
:10063000826084BD84B5816084BD85B5826085BDDE
:1006400085B5816085BD80916E00816080936E006C
:10065000109281008091810082608093810080915E
:10066000810081608093810080918000816080930F
:1006700080008091B10084608093B1008091B000CF
:1006800081608093B00080917A00846080937A00CA
:1006900080917A00826080937A0080917A008160F4
:1006A00080937A0080917A00806880937A0010921B
:1006B000C100809131018C3008F051C061E084E0CC
:1006C0000E94880180913101282F30E0F901EE0F5E
:1006D000FF1FE20FF31FE35FFE4F9081907C946059
:1006E000908310923201109233012CE0622F0E940D
:1006F000D005829FB001112430E020E0AB01420F11
:10070000531FFA01EE0FFF1FE40FF51FE35FFE4FCB
:10071000908196FD16C02F5F3F4F2C30310571F749
:1007200081110FC01092800082E0809381001092AE
:10073000850010928400B19A80916F00826080934E
:100740006F00E09131018E2F90E0FC01EE0FFF1F52
:10075000E80FF91FE35FFE4F80818064808361E0D2
:1007600086E00E94880161E087E00E94880161E0E4
:1007700088E00E94880162E08DE00E94880162E0CA
:100780008CE00E94880162E08BE00E94880162E0B8
:100790008AE00E94880180E0882E80E0982EC4EBD9
:1007A000D0E08DE00E9431015C018CE00E943101BB
:1007B0006C018BE00E9431017C018AE00E943101D2
:1007C0008C0161E0AB2809F060E086E00E945A01EC
:1007D00060E087E00E945A0160E088E00E945A01D0
:1007E00064EF71E080E090E00E94DE0160E086E06E
:1007F000CD2809F048C00E945A0161E087E00E94BC
:100800005A0160E088E00E945A0164EF71E080E0E4
:1008100090E00E94DE0110920C0110920B01C0903A
:100820000B01D0900C0185EBC816D1048CF4C601E5
:100830000E948C0062E370E080E090E00E94DE01A4
:100840008FEFC81AD80AD0920C01C0920B01E7CFE3
:10085000D0930C01C0930B01C0900B01D0900C0100
:10086000D7FC21C0C6010E948C0062E370E080E0EA
:1008700090E00E94DE0181E0C81AD108D0920C01FC
:10088000C0920B01E9CF0E945A0160E087E00E940C
:100890005A0160E088E00E945A0164EF71E080E054
:1008A00090E00E94DE0160E086E0EF2809F0C4C01D
:1008B0000E945A0160E087E00E945A0161E088E0EE
:1008C0000E945A0164EF71E080E090E00E94DE0136
:1008D00090E080E00E948C0064EF71E080E090E0A6
:1008E0000E94DE0184EB90E00E948C0064EF71E0D6
:1008F00080E090E00E94DE01012B09F0CCC061E0B5
:1009000086E00E945A0168EB7BE080E090E00E9464
:10091000DE0160E086E00E945A0162E370E080E060
:1009200090E00E94DE0161E088E00E945A0190E0C0
:1009300080E00E948C0064EF71E080E090E00E9413
:10094000DE0184EB90E00E948C0064EF71E080E0B7
:1009500090E00E94DE0184EB90E00E948C0064EF46
:1009600071E080E090E00E94DE0190E080E00E9473
:100970008C0064EF71E080E090E00E94DE0190E086
:1009800080E00E948C0064EF71E080E090E00E94C3
:10099000DE0184EB90E00E948C0064EF71E080E067
:1009A00090E00E94DE0184EB90E00E948C0064EFF6
:1009B00071E080E090E00E94DE0190E080E00E9423
:1009C0008C0064EF71E080E090E00E94DE0168EE50
:1009D00073E080E090E00E94DE0160E088E00E9429
:1009E0005A0162E370E080E090E00E94DE0161E085
:1009F00087E00E945A0168EB7BE080E090E00E9473
:100A0000DE0110920C0110920B0100910B0110916C
:100A10000C01053B1105DCF4C8010E948C0062E367
:100A200070E080E090E00E94DE010F5F1F4F1093A6
:100A30000C0100930B01E9CF0E945A0160E087E0AE
:100A40000E945A0160E088E00E945A014FCFD09383
:100A50000C01C0930B0100910B0110910C0117FDCB
:100A600010C0C8010E948C0062E370E080E090E05A
:100A70000E94DE010150110910930C0100930B013B
:100A8000EACF60E087E00E945A0162E370E080E014
:100A900090E00E94DE018114910409F482CE0E944C
:100AA00000007FCE809100018C3098F491E0980F87
:100AB000909300018093310190E0FC01EE0FFF1F45
:100AC000E80FF91FE35FFE4F88EB9BE09283818381
:100AD00008958FEF809331010895052E97FB1EF442
:100AE00000940E94840557FD07D00E949F0507FCD3
:100AF00003D04EF40C948405509540953095219583
:100B00003F4F4F4F5F4F0895909580957095619539
:100B10007F4F8F4F9F4F08950E94C105A59F900D55
:100B2000B49F900DA49F800D911D11240895B7FFCF
:100B30000C948C050E948C05821B930B0895A1E2F6
:100B40001A2EAA1BBB1BFD010DC0AA1FBB1FEE1F47
:100B5000FF1FA217B307E407F50720F0A21BB30B92
:100B6000E40BF50B661F771F881F991F1A9469F70E
:100B700060957095809590959B01AC01BD01CF016A
:100B80000895A29FB001B39FC001A39F700D811D66
:100B90001124911DB29F700D811D1124911D089586
:100BA000991B79E004C0991F961708F0961B881FBF
:100BB0007A95C9F780950895EE0FFF1F0590F4917F
:080BC000E02D0994F894FFCF29
:00000001FF
